{
  "_format": "hh-sol-artifact-1",
  "contractName": "WavePortal",
  "sourceName": "contracts/WavePortal.sol",
  "abi": [
    {
      "inputs": [],
      "stateMutability": "payable",
      "type": "constructor"
    },
    {
      "anonymous": false,
      "inputs": [
        {
          "indexed": true,
          "internalType": "address",
          "name": "from",
          "type": "address"
        },
        {
          "indexed": false,
          "internalType": "uint256",
          "name": "timestamp",
          "type": "uint256"
        },
        {
          "indexed": false,
          "internalType": "string",
          "name": "message",
          "type": "string"
        }
      ],
      "name": "NewWave",
      "type": "event"
    },
    {
      "inputs": [],
      "name": "getAllWaves",
      "outputs": [
        {
          "components": [
            {
              "internalType": "address",
              "name": "waver",
              "type": "address"
            },
            {
              "internalType": "string",
              "name": "message",
              "type": "string"
            },
            {
              "internalType": "uint256",
              "name": "timestamp",
              "type": "uint256"
            }
          ],
          "internalType": "struct WavePortal.Wave[]",
          "name": "",
          "type": "tuple[]"
        }
      ],
      "stateMutability": "view",
      "type": "function"
    },
    {
      "inputs": [],
      "name": "getTotalSeeds",
      "outputs": [
        {
          "internalType": "uint256",
          "name": "",
          "type": "uint256"
        }
      ],
      "stateMutability": "view",
      "type": "function"
    },
    {
      "inputs": [],
      "name": "getTotalWaves",
      "outputs": [
        {
          "internalType": "uint256",
          "name": "",
          "type": "uint256"
        }
      ],
      "stateMutability": "view",
      "type": "function"
    },
    {
      "inputs": [
        {
          "internalType": "address",
          "name": "",
          "type": "address"
        }
      ],
      "name": "lastWavedAt",
      "outputs": [
        {
          "internalType": "uint256",
          "name": "",
          "type": "uint256"
        }
      ],
      "stateMutability": "view",
      "type": "function"
    },
    {
      "inputs": [
        {
          "internalType": "string",
          "name": "_message",
          "type": "string"
        }
      ],
      "name": "wave",
      "outputs": [],
      "stateMutability": "nonpayable",
      "type": "function"
    }
  ],
  "bytecode": "0x6080604052606444426200001491906200002c565b62000020919062000093565b60018190555062000129565b6000620000398262000089565b9150620000468362000089565b9250827fffffffffffffffffffffffffffffffffffffffffffffffffffffffffffffffff038211156200007e576200007d620000cb565b5b828201905092915050565b6000819050919050565b6000620000a08262000089565b9150620000ad8362000089565b925082620000c057620000bf620000fa565b5b828206905092915050565b7f4e487b7100000000000000000000000000000000000000000000000000000000600052601160045260246000fd5b7f4e487b7100000000000000000000000000000000000000000000000000000000600052601260045260246000fd5b61109b80620001396000396000f3fe608060405234801561001057600080fd5b50600436106100575760003560e01c8063449d46c01461005c5780639a2cdc08146100785780639d30d06314610096578063a42a4663146100b4578063bd43a908146100e4575b600080fd5b61007660048036038101906100719190610922565b610102565b005b6100806104fc565b60405161008d9190610d2d565b60405180910390f35b61009e610505565b6040516100ab9190610d2d565b60405180910390f35b6100ce60048036038101906100c991906108f9565b61050f565b6040516100db9190610d2d565b60405180910390f35b6100ec610527565b6040516100f99190610c4b565b60405180910390f35b60016000808282546101149190610e4a565b9250508190555061015a6040518060400160405280600d81526020017f257320686173207761766564210000000000000000000000000000000000000081525033610678565b426078600360003373ffffffffffffffffffffffffffffffffffffffff1673ffffffffffffffffffffffffffffffffffffffff168152602001908152602001600020546101a79190610e4a565b106101e7576040517f08c379a00000000000000000000000000000000000000000000000000000000081526004016101de90610ccd565b60405180910390fd5b42600360003373ffffffffffffffffffffffffffffffffffffffff1673ffffffffffffffffffffffffffffffffffffffff16815260200190815260200160002081905550600260405180606001604052803373ffffffffffffffffffffffffffffffffffffffff16815260200183815260200142815250908060018154018082558091505060019003906000526020600020906003020160009091909190915060008201518160000160006101000a81548173ffffffffffffffffffffffffffffffffffffffff021916908373ffffffffffffffffffffffffffffffffffffffff16021790555060208201518160010190805190602001906102ea9291906107d9565b50604082015181600201555050606460015442446103089190610e4a565b6103129190610e4a565b61031c9190610f50565b6001819055506103636040518060400160405280601681526020017f52616e646f6d20232067656e6572617465643a20256400000000000000000000815250600154610714565b600a600154116104a9576103ac6040518060400160405280600781526020017f257320776f6e210000000000000000000000000000000000000000000000000081525033610678565b6000655af3107a40009050478111156103fa576040517f08c379a00000000000000000000000000000000000000000000000000000000081526004016103f190610ced565b60405180910390fd5b60003373ffffffffffffffffffffffffffffffffffffffff168260405161042090610c36565b60006040518083038185875af1925050503d806000811461045d576040519150601f19603f3d011682016040523d82523d6000602084013e610462565b606091505b50509050806104a6576040517f08c379a000000000000000000000000000000000000000000000000000000000815260040161049d90610d0d565b60405180910390fd5b50505b3373ffffffffffffffffffffffffffffffffffffffff167f5f7e16dc676677766a70e9c5628aa6c54ddb8b6e5188e2ae1e1f17f1ffbea71642836040516104f1929190610d48565b60405180910390a250565b60008054905090565b6000600154905090565b60036020528060005260406000206000915090505481565b60606002805480602002602001604051908101604052809291908181526020016000905b8282101561066f57838290600052602060002090600302016040518060600160405290816000820160009054906101000a900473ffffffffffffffffffffffffffffffffffffffff1673ffffffffffffffffffffffffffffffffffffffff1673ffffffffffffffffffffffffffffffffffffffff1681526020016001820180546105d490610f1e565b80601f016020809104026020016040519081016040528092919081815260200182805461060090610f1e565b801561064d5780601f106106225761010080835404028352916020019161064d565b820191906000526020600020905b81548152906001019060200180831161063057829003601f168201915b505050505081526020016002820154815250508152602001906001019061054b565b50505050905090565b610710828260405160240161068e929190610c6d565b6040516020818303038152906040527f319af333000000000000000000000000000000000000000000000000000000007bffffffffffffffffffffffffffffffffffffffffffffffffffffffff19166020820180517bffffffffffffffffffffffffffffffffffffffffffffffffffffffff83818316178352505050506107b0565b5050565b6107ac828260405160240161072a929190610c9d565b6040516020818303038152906040527f9710a9d0000000000000000000000000000000000000000000000000000000007bffffffffffffffffffffffffffffffffffffffffffffffffffffffff19166020820180517bffffffffffffffffffffffffffffffffffffffffffffffffffffffff83818316178352505050506107b0565b5050565b60008151905060006a636f6e736f6c652e6c6f679050602083016000808483855afa5050505050565b8280546107e590610f1e565b90600052602060002090601f016020900481019282610807576000855561084e565b82601f1061082057805160ff191683800117855561084e565b8280016001018555821561084e579182015b8281111561084d578251825591602001919060010190610832565b5b50905061085b919061085f565b5090565b5b80821115610878576000816000905550600101610860565b5090565b600061088f61088a84610da9565b610d78565b9050828152602081018484840111156108a757600080fd5b6108b2848285610edc565b509392505050565b6000813590506108c98161104e565b92915050565b600082601f8301126108e057600080fd5b81356108f084826020860161087c565b91505092915050565b60006020828403121561090b57600080fd5b6000610919848285016108ba565b91505092915050565b60006020828403121561093457600080fd5b600082013567ffffffffffffffff81111561094e57600080fd5b61095a848285016108cf565b91505092915050565b600061096f8383610bc8565b905092915050565b61098081610ea0565b82525050565b61098f81610ea0565b82525050565b60006109a082610de9565b6109aa8185610e0c565b9350836020820285016109bc85610dd9565b8060005b858110156109f857848403895281516109d98582610963565b94506109e483610dff565b925060208a019950506001810190506109c0565b50829750879550505050505092915050565b6000610a1582610df4565b610a1f8185610e28565b9350610a2f818560208601610eeb565b610a388161103d565b840191505092915050565b6000610a4e82610df4565b610a588185610e39565b9350610a68818560208601610eeb565b610a718161103d565b840191505092915050565b6000610a89602483610e39565b91507f4d757374207761697420333073656373206265666f726520776176696e67206160008301527f6761696e000000000000000000000000000000000000000000000000000000006020830152604082019050919050565b6000610aef603483610e39565b91507f547279696e6720746f207769746864726177206d6f7265206d6f6e657920746860008301527f616e2074686520636f6e7472616374206861732e0000000000000000000000006020830152604082019050919050565b6000610b55602783610e39565b91507f4661696c656420746f207769746864726177206d6f6e65792066726f6d20636f60008301527f6e74726163742e000000000000000000000000000000000000000000000000006020830152604082019050919050565b6000610bbb600083610e1d565b9150600082019050919050565b6000606083016000830151610be06000860182610977565b5060208301518482036020860152610bf88282610a0a565b9150506040830151610c0d6040860182610c18565b508091505092915050565b610c2181610ed2565b82525050565b610c3081610ed2565b82525050565b6000610c4182610bae565b9150819050919050565b60006020820190508181036000830152610c658184610995565b905092915050565b60006040820190508181036000830152610c878185610a43565b9050610c966020830184610986565b9392505050565b60006040820190508181036000830152610cb78185610a43565b9050610cc66020830184610c27565b9392505050565b60006020820190508181036000830152610ce681610a7c565b9050919050565b60006020820190508181036000830152610d0681610ae2565b9050919050565b60006020820190508181036000830152610d2681610b48565b9050919050565b6000602082019050610d426000830184610c27565b92915050565b6000604082019050610d5d6000830185610c27565b8181036020830152610d6f8184610a43565b90509392505050565b6000604051905081810181811067ffffffffffffffff82111715610d9f57610d9e61100e565b5b8060405250919050565b600067ffffffffffffffff821115610dc457610dc361100e565b5b601f19601f8301169050602081019050919050565b6000819050602082019050919050565b600081519050919050565b600081519050919050565b6000602082019050919050565b600082825260208201905092915050565b600081905092915050565b600082825260208201905092915050565b600082825260208201905092915050565b6000610e5582610ed2565b9150610e6083610ed2565b9250827fffffffffffffffffffffffffffffffffffffffffffffffffffffffffffffffff03821115610e9557610e94610f81565b5b828201905092915050565b6000610eab82610eb2565b9050919050565b600073ffffffffffffffffffffffffffffffffffffffff82169050919050565b6000819050919050565b82818337600083830152505050565b60005b83811015610f09578082015181840152602081019050610eee565b83811115610f18576000848401525b50505050565b60006002820490506001821680610f3657607f821691505b60208210811415610f4a57610f49610fdf565b5b50919050565b6000610f5b82610ed2565b9150610f6683610ed2565b925082610f7657610f75610fb0565b5b828206905092915050565b7f4e487b7100000000000000000000000000000000000000000000000000000000600052601160045260246000fd5b7f4e487b7100000000000000000000000000000000000000000000000000000000600052601260045260246000fd5b7f4e487b7100000000000000000000000000000000000000000000000000000000600052602260045260246000fd5b7f4e487b7100000000000000000000000000000000000000000000000000000000600052604160045260246000fd5b6000601f19601f8301169050919050565b61105781610ea0565b811461106257600080fd5b5056fea2646970667358221220fecc150b68f693c505740e75cbf914d8989b2be95fa9c1db92a6a803a73a0fd264736f6c63430008000033",
  "linkReferences": {},
  "deployedLinkReferences": {}
}